:040000000BEF00F012
:100008003382FACF06F0FBCF07F087ED04F063EFF9
:0200180006F0F0
:100600000033322C060C446573697265643E200029
:1006100000000000000041637475616C3E20000022
:10062000000000000000506F745F56616C75653EFD
:10063000200000000000446573697265643E20007C
:1006400000000000000000000000000000000000AA
:10065000000000000000000000000000000000009A
:10066000000000000000000000000000000000008A
:10067000000000000000000000000000000000007A
:10068000000000000000000000000000000000006A
:10069000000000000000000000000000000000005A
:1006A000000000000000526561647920746F2067CB
:1006B0006F0050726F626C656D000000140E226E48
:1006C0001E0E236E280E216E000E256E010E246E66
:1006D000000E266E000E276E80EC06F042EC06F04F
:1006E000000E196E000EDDEC06F031C019F032C0BC
:1006F0001AF018EC06F0020E9CEC06F0000EE5EC89
:1007000005F0000E196E0A0EDDEC06F02250E7EC43
:1007100004F0010E196E0A0EDDEC06F02350E7EC32
:1007200004F02B50D8A41FD02C50D8A41CD0F9D73B
:100730002BA062D0010E246E010EE5EC05F09E9C0C
:10074000C2805AD02BA058D0000E246E000EE5ECCB
:1007500005F0C29051D02BA04FD0000E246E000E99
:10076000E5EC05F049D02450000AD8B4E1D7010ADD
:10077000D8B4E8D7F0D7000E196E0A0EDDEC06F0FB
:100780002650E7EC04F0010E196E0A0EDDEC06F0BF
:100790002750E7EC04F0010E2DD02BB225C026F037
:1007A000C440E8423F0B256E330E256402D0320E62
:1007B000256EC282000E196E0A0EDDEC06F0255081
:1007C000E7EC04F0010E196E0A0EDDEC06F026507F
:1007D000E7EC04F0020E0ED0000E196E000EDDECF8
:1007E00006F0B6EC06F02FC019F030C01AF018EC85
:1007F00006F0050E8B6E08D02450000AD8B4BBD783
:10080000010AD8B4CAD7E8D7000E2B6E000E2C6EA2
:1008100088D7176E17C015F0153A0F0E15168C50A5
:100820001518FE0B15188C6E17C015F0050E166EF8
:10083000D8901532162EFCD715468C501518FD0B86
:1008400015188C6E17C015F0060E166ED89015325E
:10085000162EFCD7154615468C501518FB0B15188F
:100860008C6E156A17AE01D0152A15461546154629
:100870008C501518F70B15188C6E14B002D08C988C
:1008800001D08C88030EE82EFED78C8A030EE82E4A
:10089000FED78C9A510EE82EFED700D017B002D0AA
:1008A0008C9001D08C8017C015F0D8901532154669
:1008B0008C501518FD0B15188C6E17C015F0D890BC
:1008C0001532D8901532154615468C501518FB0B6D
:1008D00015188C6E17C015F0D8901532D8901532B7
:1008E000D89015321546154615468C501518F70B3D
:1008F00015188C6E030EE82EFED78C8A030EE82E98
:10090000FED78C9A510EE82EFED700D012000600BA
:10091000E9CF08F0EACF09F0E1CF0AF0E2CF0BF01F
:10092000D9CF0CF0DACF0DF0F3CF0EF0F4CF0FF0FB
:10093000F6CF10F0F7CF11F0F8CF12F0F5CF13F09B
:10094000F2BAF2A426D06EEC05F0A00E026E000EF4
:10095000016EF3EC06F0F2942D2A640E2D18D8A443
:1009600010D082AE02D0010E01D0000EFF0A056E3B
:1009700005320532825005187F0B0518826E000E75
:100980002D6E2E2A0A0E2E6404D0010E2C6E000E3F
:100990002E6E13C0F5FF12C0F8FF11C0F7FF10C094
:1009A000F6FF0FC0F4FF0EC0F3FF0DC0DAFF0CC05E
:1009B000D9FF0BC0E2FF0AC0E1FF09C0EAFF08C08F
:1009C000E9FF07C0FBFF06C0FAFF339211001F6E5C
:1009D0001FC014F0156A000E176E0A0E166EADECED
:1009E00005F014501E6E1FC014F0156A000E176E2D
:1009F0000A0E166E2CEC05F014501F6E1FC014F07A
:100A0000156A000E176E0A0E166EADEC05F0145046
:100A10001D6E1FC014F0156A000E176E0A0E166EBA
:100A20002CEC05F014501F6E1FC014F0156A000E58
:100A3000176E0A0E166EADEC05F014501C6E1C50AD
:100A4000300FFCEC06F01D50300FFCEC06F01E5091
:100A5000300FFCEC06F01200000E196E17AE06D037
:100A6000166C171ED8B0172A010E196E15AE06D0D7
:100A7000146C151ED8B0152A010E191A000E1B6E23
:100A8000000E1A6E16501710D8B41CD0010E186E36
:100A900004D0D89016361736182A17AEFAD7D89041
:100AA0001A361B361650145C17501558D8A005D0AE
:100AB0001650145E1750155A1A80D89017321632F5
:100AC000182EEDD71950D8B404D01A6C1B1ED8B00C
:100AD0001B2A1AC014F01BC015F0120030D0815030
:100AE000D8B41200010E296E000E286E81CF2AF0B4
:100AF000120081502A18D8A407D0282A0A0E286488
:100B00001200020E296E1200000E296E1200815092
:100B1000D8A41200030E296E12002AC02BF0000E7A
:100B2000296E000E286E000E2A6E1200000E296E2D
:100B3000000E286E000E2A6E000E2B6E1200295039
:100B4000000AD8B4CCD7010AD8B4D3D7030AD8B492
:100B5000DED7010AD8B4E1D7E9D7000E196E15AE79
:100B600006D0146C151ED8B0152A010E196E17AEDA
:100B700004D0166C171ED8B0172A16501710D8B408
:100B800018D0010E186E04D0D89016361736182AD1
:100B900017AEFAD71650145C17501558D8A004D0C9
:100BA0001650145E1750155AD89017321632182E58
:100BB000F1D71950D8B404D0146C151ED8B0152A2A
:100BC00014C014F015C015F01200206EB6EC06F03B
:100BD000000E196E000EDDEC06F02050200D060E02
:100BE000F324196E060EF4201A6E18EC06F0010EAE
:100BF000196E000EDDEC06F020501E6E1F6AD890B4
:100C00001E361F361E3A1F3AF00E1F161E500F0BCF
:100C10001F12F00E1E16100E1E26000E1F22060EAC
:100C20001E24196E060E1F201A6E18EC06F0120014
:100C3000000E1D6E13D01D50010D19C01BF01AC0FF
:100C40001CF0F3501B26F4501C221BC0F6FF1CC0E6
:100C5000F7FF0800F550FCEC06F01D2A1D50010DB1
:100C600019C01BF01AC01CF0F3501B26F4501C22B4
:100C70001BC0F6FF1CC0F7FF0800F5500009D8B4F0
:100C80001200D9D79550C00B956EE00E1A6E6A0E01
:100C9000E82EFED71A2EFCD7000E1B6E040E1B6426
:100CA00001D00ED01B50010D010EF324F66E060E7E
:100CB000F420F76E0800F55003EC07F01B2AEED77E
:100CC000B6EC06F0120000EE28F0070EEE6AE80619
:100CD000FDE1140EF66E0E0EF76E000EF86E00EECD
:100CE0002FF010EE04F00900F5CFEEFFE550E150D3
:100CF000FAE133903392000EF86E00015EEF03F0DC
:100D0000010EC26E0E0EC16E170EC06E010E926EF7
:100D10009368000E946E8B68030E9CEC06F0000E38
:100D20008B6E900ECDEC06F0A00E156E000E146EBC
:100D3000EAEC06F0F28E1200156E000E166E11D05F
:100D4000000E176E180E176401D00AD0000E146E34
:100D5000540EE82EFED7142EFCD700D0172AF2D757
:100D6000162A1550165CD8B01200EAD7010E03EC13
:100D700007F00D0E196EC30EE82EFED7192EFCD704
:100D800000F0020E03EC07F00D0E196EC30EE82EF4
:100D9000FED7192EFCD700F01200146E14507F0BF2
:100DA000D56E000ED76E000ED66EF29414AE02D041
:100DB000F28A01D0F29AD58E12001A6E1950D8A478
:100DC00002D0800E01D0C00E196E19501A2403EC07
:100DD00007F0120014C016F015C017F017C0D7FFA7
:100DE00016C0D6FF120001C003F002C004F004C018
:100DF000D7FF03C0D6FF1200186E010E146E1850F4
:100E000009EC04F01200186E000E146E185009EC74
:080E100004F01200B206A60670
:020000040020DA
:08000000FFFFFFFFFFFFFFFF00
:020000040030CA
:0E000000FF021F1EFF8181FF0FC00FE00F40A7
:00000001FF
