:040000000BEF00F012
:100008006182FACF3FF0FBCF40F09EED06F086EF1D
:020018000AF0EC
:100600000033322C060C446573697265643E200029
:1006100000000000000041637475616C3E20000022
:10062000000000000000506F745F56616C75653EFD
:10063000200000000000446573697265643E20007C
:1006400000000000000000000000000000000000AA
:10065000000000000000000000000000000000009A
:10066000000000000000000000000000000000008A
:10067000000000000000000000000000000000007A
:10068000000000000000000000000000000000006A
:10069000000000000000000000000000000000005A
:1006A000000000000000526561647920746F2067CB
:1006B0006F0050726F626C656D000000900E00015B
:1006C0008D6FD00E00018E6F030E00018F6F000E34
:1006D0000001916F000E906F000E0001936F010EEC
:1006E0000001926F000E0001946F000E0001956FE3
:1006F00090EC08F024EC0BF055EC0BF024EC0BF034
:1007000060EC0AF0000E0001856F000EDAEC0AF0D2
:100710009AC085F09BC086F007EC0AF0020E39EC17
:100720000AF0000E85EC09F000019651D8A426D0FD
:1007300000019751D8A422D0F7D7000196A187D005
:10074000010E0001926F010E85EC09F09E9CC280A3
:100750007ED0000196A17BD0000E0001926F000EAA
:1007600085EC09F0C29073D0000196A170D0000E04
:100770000001926F000E85EC09F069D000019251E2
:10078000000AD8B4DAD7010AD8B4E3D7EDD7000EFF
:100790000001856F0A0EDAEC0AF000019451DCECDE
:1007A00007F05AC090F05BC091F08DC080F08EC011
:1007B00081F08FC082F090C083F091C084F000017E
:1007C000856B36EC09F0000180510001956F010E38
:1007D0000001856F0A0EDAEC0AF000019551DCEC9D
:1007E00007F03ED0000196B393C094F0C440E842B5
:1007F0003F0B0001936F330E0001936503D0320E5F
:100800000001936FC282000E0001856F0A0EDAECC0
:100810000AF000019351DCEC07F0010E0001856F36
:100820000A0EDAEC0AF000019451DCEC07F018D063
:10083000000E0001856F000EDAEC0AF0A8EC0AF059
:1008400098C085F099C086F007EC0AF009D0000145
:100850009251000AD8B49BD7010AD8B4C3D7E8D7BD
:10086000000E0001966F000E0001976F5DD722C049
:1008700026F0276A286A2134263601E3278026508D
:100880002B6E25C026F0276A286A2434263601E319
:10089000278026502A6E2B50D8B40BD02A502B5CC0
:1008A000D8B00ED02B5000082A24266E180E2664CD
:1008B00007D023C020F024C021F025C022F0120070
:1008C0002A50D8B40BD02B502A5CD8B00ED02A5066
:1008D00000082B24266E180E266407D020C020F0B6
:1008E00021C021F022C022F01200060E296E22BE85
:1008F000298E25BE298C218EFF0E2016FF0E211673
:10090000000E2216248EFF0E2316FF0E2416000E54
:1009100025162A502B5CD8B01BD0D890233624360D
:1009200025362A062B502A18D8B40DD0290629C0FE
:1009300026F0070E2616D8B406D0EFD7D89022326C
:10094000213220322B2A2A502B18D8B41FD0F6D7A8
:100950002B502A5CD8B01AD0D890203621362236B7
:100960002B062B502A18D8B40DD0290629C026F002
:10097000070E2616D8B406D0EFD7D89025322432E9
:1009800023322A2A2A502B18D8A4F7D729AE0CD004
:10099000FF0E201AFF0E211AFF0E221A010E20262A
:1009A000000E2122000E222229AC0CD0FF0E231AA9
:1009B000FF0E241AFF0E251A010E2326000E2422F4
:1009C000000E2522000E296E2050232621502422BD
:1009D0002250252225AE0ED0FF0E231AFF0E241A18
:1009E000FF0E251A010E2326000E2422000E2522BA
:1009F000010E296E23C001F024C002F025C003F0CF
:100A00002BC004F029C005F039EC08F001C020F03B
:100A100002C021F003C022F012000001836F83C0E6
:100A200081F00001813B0F0E81178C50000181196C
:100A3000FE0B81198C6E83C081F0050E0001826F60
:100A40000001D89081330001822FFAD7000181473D
:100A50008C5000018119FD0B81198C6E83C081F0CF
:100A6000060E0001826F0001D89081330001822FB1
:100A7000FAD70001814781478C5000018119FB0B97
:100A800081198C6E0001816B83AF02D00001812B34
:100A900000018147814781478C5000018119F70B84
:100AA00081198C6E000180B102D08C9801D08C88A5
:100AB000030EE82EFED78C8A030EE82EFED78C9A02
:100AC000510EE82EFED700D0000183B102D08C90E9
:100AD00001D08C8083C081F00001D8908133000167
:100AE00081478C5000018119FD0B81198C6E83C0E8
:100AF00081F00001D89081330001D890813300014A
:100B0000814781478C5000018119FB0B81198C6E44
:100B100083C081F00001D89081330001D8908133E7
:100B20000001D890813300018147814781478C5073
:100B300000018119F70B81198C6E030EE82EFED788
:100B40008C8A030EE82EFED78C9A510EE82EFED723
:100B500000D012002EC030F0316A326A2D343036A7
:100B600001E3318030503A6E3A50D8A409D0000EDB
:100B70002C6E000E2D6E000E2E6E000E2F6E1200CB
:100B8000170E306E2CC031F02DC032F02EC033F075
:100B90003028346E04D0D890333232323132342E91
:100BA000FAD73150356E2D8EFF0E2C16FF0E2D16F6
:100BB000000E2E162C50366E2D50376E2E50386E7D
:100BC000396A8E0E3A5E3AAE16D03A50800A8F0FCE
:100BD000D8B009D0000E2C6E000E2D6E000E2E6EB9
:100BE000000E2F6E1200D89039323832373236323A
:100BF0003A3EF9D715D0170E3A640FD0000E2C6E7E
:100C0000000E2D6E000E2E6E000E2F6E1200D8906C
:100C100036363736383639363A063A50D8A4F7D70A
:100C20003550D8B408D0391E381E371E366C000E29
:100C300037223822392236C02CF037C02DF038C088
:100C40002EF039C02FF0120010C014F0156A166A89
:100C50000F34143601E315801450176E1750D8A4C2
:100C600007D0000E0E6E000E0F6E000E106E1200FA
:100C700013C014F0156A166A1234143601E3158095
:100C800014501C6E1C50D8A407D0000E0E6E000E1F
:100C90000F6E000E106E12001C507B0F172610C036
:100CA0001CF013501C1A800E1C160F8E128EFF0E95
:100CB0001116FF0E1216000E1316000E186E000EFF
:100CC000196E000E1A6E070E1B6E0EA006D0115084
:100CD00018261250192213501A22D89010320F32AF
:100CE0000E32D8901136123613361B2EEED7090E5F
:100CF0001B6E0EA006D01150182612501922135048
:100D00001A22D89010320F320E32D8901A3219327D
:100D100018321B2EEED718C001F019C002F01AC00D
:100D200003F017C004F01CC005F039EC08F001C056
:100D30000EF002C00FF003C010F012000600E9CF61
:100D400041F0EACF42F0E1CF43F0E2CF44F0D9CF17
:100D500045F0DACF46F0F3CF47F0F4CF48F0F6CFC6
:100D600049F0F7CF4AF0F8CF4BF0F5CF4CF0F2BA9C
:100D7000F2A43BD0C7EC09F0B10E026EE00E016E9A
:100D80004CEC0BF0F2945F2A640E5F18D8A40FD0DD
:100D900084A202D0010E01D0000EFF0A3E6E3E4634
:100DA00084503E18FD0B3E18846E000E5F6E602A64
:100DB0000A0E606409D013EC07F058C0BBFF010EA7
:100DC0000001976F000E606E9EB49DA40ED09E949D
:100DD000BF505B6E5A6ABE505A245A6E000E5B209A
:100DE0005B6E000ECF6E000ECE6E4CC0F5FF4BC09A
:100DF000F8FF4AC0F7FF49C0F6FF48C0F4FF47C0FC
:100E0000F3FF46C0DAFF45C0D9FF44C0E2FF43C04C
:100E1000E1FF42C0EAFF41C0E9FF40C0FBFF3FC025
:100E2000FAFF61921100000E3B6E000E3C6E000E48
:100E30003D6E56C057F00001955100080001942501
:100E4000566E58C059F053C011F054C012F055C03E
:100E500013F05650C1EC0AF009C00EF00AC00FF0B2
:100E60000BC010F024EC06F00EC020F00FC021F0F3
:100E700010C022F04DC011F04EC012F04FC013F060
:100E80005750C1EC0AF009C00EF00AC00FF00BC0B9
:100E900010F024EC06F00EC01DF00FC01EF010C0C4
:100EA0001FF012EC0BF01DC023F01EC024F01FC079
:100EB00025F037EC04F020C03BF021C03CF022C00C
:100EC0003DF03BC023F03CC024F03DC025F059501C
:100ED00000EC0BF009C020F00AC021F00BC022F09A
:100EE00037EC04F020C02CF021C02DF022C02EF0F1
:100EF000AAEC05F02C50586E1200000E0001856F10
:100F0000000183AF08D00001826D831FD8B0832B0E
:100F1000010E0001856F000181AF08D00001806DD6
:100F2000811FD8B0812B010E0001851B000E00012E
:100F3000876F000E866F0001825100018311D8B4C3
:100F40002CD0010E0001846F06D00001D8908237AA
:100F500083370001842B000183AFF7D70001D890BD
:100F600086378737000182510001805D000183517F
:100F700000018159D8A00AD0000182510001805F90
:100F8000000183510001815B000186810001D8903E
:100F9000833382330001842FE1D7000185510001A2
:100FA000D8B405D00001866D871FD8B0872B86C0C6
:100FB00080F087C081F0120000018B6F8BC080F041
:100FC0000001816B000E0001836F0A0E826FE5EC59
:100FD00008F00001805100018A6F8BC080F0000191
:100FE000816B000E0001836F0A0E826F7DEC07F0AB
:100FF0000001805100018B6F8BC080F00001816B7C
:10100000000E0001836F0A0E826FE5EC08F000010C
:1010100080510001896F8BC080F00001816B000E50
:101020000001836F0A0E826F7DEC07F00001805192
:1010300000018B6F8BC080F00001816B000E0001FE
:10104000836F0A0E826FE5EC08F000018051000109
:10105000886F00018851300F2FEC0BF0000189518F
:10106000300F2FEC0BF000018A51300F2FEC0BF0FA
:1010700012000450D8B405D0015002100310D8A4B7
:101080000CD0000E016E000E026E000E036E1200F8
:10109000042AD890033202320132000E0114066E87
:1010A000000E0214076EFE0E0314086E06500710A1
:1010B0000810D8B40CD0ECD7042A010E0126000E7B
:1010C0000222000E0322D890033202320132000EB7
:1010D0000114066E000E0214076EFF0E0314086E54
:1010E000065007100810D8B406D0E6D70406D890EA
:1010F00001360236033602BE03D0020E0460F6D774
:1011000004A0029ED8900432045003120550D8A4C3
:10111000038E01C001F002C002F003C003F0120010
:10112000010EC26E0E0EC16E170EC06E010E926ED3
:101130009368000E946E000E966E94848D68030E74
:1011400039EC0AF0000E8D6E9F0EEDEC0AF0B10E38
:101150000001816FE00E806F43EC0BF0F28ECA84C9
:10116000CA9CCA9ACA98CA96BA86BA84BA92BA80EF
:10117000640ECB6EBD96BD84BD92BD809D84CD8E28
:10118000CD92CD80CD8ACD88CD0E4D6ECC0E4E6EDB
:101190003E0E4F6E9A0E506E990E516E3E0E526E6E
:1011A000330E536E330E546E3F0E556E000E566E58
:1011B000000E576E1E0E586E1E0E596E000E000168
:1011C000956F140E0001946F1200000E0001856FE0
:1011D000000181AF08D00001806D811FD8B0812B44
:1011E000010E0001856F000183AF05D00001826D03
:1011F000831FD8B0832B0001825100018311D8B422
:1012000026D0010E0001846F06D00001D8908237ED
:1012100083370001842B000183AFF7D7000182518F
:101220000001805D0001835100018159D8A008D0E0
:10123000000182510001805F000183510001815B48
:101240000001D890833382330001842FE7D7000157
:1012500085510001D8B405D00001806D811FD8B040
:10126000812B80C080F081C081F01200000E00014F
:10127000866F000E0001876F000E0001886F00016D
:1012800083510001841100018511D8B437D0010EBB
:101290000001896F07D00001D890833784378537E4
:1012A0000001892B000185AFF6D70001D890863761
:1012B00087378837000183510001805D0001845128
:1012C000000181590001855100018259D8A00ED03A
:1012D000000183510001805F000184510001815BA6
:1012E000000185510001825B000186810001D890D8
:1012F0008533843383330001892FD7D786C080F0AC
:1013000087C081F088C082F0120000018C6FA8ECC9
:101310000AF0000E0001856F000EDAEC0AF0000101
:101320008C51200D060EF3240001856F060EF4206B
:101330000001866F07EC0AF0010E0001856F000EB8
:10134000DAEC0AF000018C5100018A6F8B6BD890A7
:1013500000018A378B3700018A3B8B3BF00E8B17DD
:101360008A510F0B8B13F00E8A17100E00018A277B
:10137000000E8B23060E00018A250001856F060EE4
:1013800000018B210001866F07EC0AF0120031D0BA
:101390008150D8B41200010E5D6E000E5C6E81CFDC
:1013A0005EF0120081505E18D8A407D05C2A0A0EA5
:1013B0005C641200020E5D6E1200000E5D6E120083
:1013C0008150D8A41200030E5D6E12005EC096F02C
:1013D000000E5D6E000E5C6E000E5E6E1200000E62
:1013E0005D6E000E5C6E000E5E6E000E0001966F6C
:1013F00012005D50000AD8B4CBD7010AD8B4D2D7B6
:10140000030AD8B4DDD7010AD8B4E0D7E8D7000E74
:101410000001896F17D000018951010D85C087F047
:1014200086C088F0F35000018727F450000188231C
:1014300087C0F6FF88C0F7FF0800F5502FEC0BF0CF
:101440000001892B00018951010D85C087F086C0FC
:1014500088F0F35000018727F4500001882387C0EB
:10146000F6FF88C0F7FF0800F5500009D8B4120055
:10147000D2D70001816F190E00019C6F000E000190
:10148000836F17D0000E0001826F0BD0680E000131
:10149000806FE40EE82EFED7802FFCD700D000012D
:1014A000822B00019C510001825DD8A0EFD7000182
:1014B000832B000181510001835DD8B01200E2D777
:1014C0009550C00B956EE00E0001866F6A0EE82EF7
:1014D000FED7862FFCD7000E0001876F040E000197
:1014E000876501D010D000018751010D010EF32452
:1014F000F66E060EF420F76E0800F55039EC0BF08E
:101500000001872BEBD7A8EC0AF012000001976BC3
:10151000966B956B946B00EE4DF0140EEE6AE80638
:10152000FDE1B60EF66E160EF76E000EF86E00EECA
:1015300098F010EE04F00900F5CFEEFFE550E15011
:10154000FAE161906192000EF86E00015EEF03F027
:10155000010E39EC0BF00D0E0001856FC30EE82E65
:10156000FED7852FFCD700F0020E39EC0BF00D0EE4
:101570000001856FC30EE82EFED7852FFCD700F043
:1015800012000D6E000E0C6E0DAE03D00D6C010E30
:101590000C6E0D50016E026A036A8E0E046E0CC052
:1015A00005F039EC08F001C009F002C00AF003C0F0
:1015B0000BF012000001866F000185510001D8A4D4
:1015C00002D0800E01D0C00E0001856F0001855150
:1015D0000001862539EC0BF012000001806F00013C
:1015E00080517F0BD56E000ED76E000ED66EF29432
:1015F000000180AF02D0F28A01D0F29AD58E12009B
:101600000C6E0C50016E026A036A8E0E046E000EA0
:10161000056E39EC08F001C009F002C00AF003C001
:101620000BF012001D501E101F10D8B406D0000E73
:101630001D1A000E1E1A800E1F1A1DC01DF01EC09E
:101640001EF01FC01FF01200010E846E050E39EC53
:101650000AF0000E846E050E39EC0AF0120000014B
:10166000846F010E0001806F000184510DEC05F0C4
:1016700012000001846F000E0001806F0001845190
:101680000DEC05F0120080C082F081C083F083C0B1
:10169000D7FF82C0D6FF120001C003F002C004F0E1
:1016A00004C0D7FF03C0D6FF1200D38CD38AD388DF
:0A16B000D382D3901200B206A60602
:020000040020DA
:08000000FFFFFFFFFFFFFFFF00
:020000040030CA
:0E000000FF021F1EFF8181FF0FC00FE00F40A7
:00000001FF
